:100000000C9464000C948C000C948C000C94890368
:100010000C94B6030C94E3030C948C000C948C00A9
:100020000C948C000C948C000C948C000C948C0020
:100030000C948C000C948C000C948C000C948C0010
:100040000C94700B0C948C000C943D0D0C948B0D47
:100050000C948C000C948C000C948C000C948C00F0
:100060000C948C000C948C000000000024002700ED
:100070002A0000000000250028002B0000000000DE
:1000800023002600290004040404040404040202DA
:100090000202020203030303030301020408102007
:1000A0004080010204081020010204081020000012
:1000B0000007000201000003040600000000000029
:1000C0000000CF001004F70E11241FBECFEFD8E0C0
:1000D000DEBFCDBF11E0A0E0B1E0EEEEFCE202C079
:1000E00005900D92A434B107D9F713E0A4E4B1E070
:1000F00001C01D92A63AB107E1F710E0C8ECD0E0CC
:1001000004C02297FE010E945D16C23CD107C9F7C8
:100110000E944D0F0C9475160C940000FB01DC013D
:1001200002C001900D9241505040D8F70895FB0154
:10013000DC0101900D920020E1F70895FB019F0181
:10014000E8944230C4F04532B4F44A3029F497FBC5
:100150001EF4909581959F4F642F77270E9461161A
:10016000805D8A330CF0895D8193CB010097A1F704
:1001700016F45DE251931082C9010C94BF00DC01BA
:10018000FC01672F71917723E1F7329704C07C91CE
:100190006D9370836291AE17BF07C8F30895AF9255
:1001A000BF92CF92DF92EF92FF920F931F9384E45E
:1001B00091E00E94930282E092E0A0901E01B09034
:1001C0001F01C0902001D0902101E0902201F09009
:1001D00023010091240110912501209126013091E5
:1001E0002701409128015091290160912A017091C5
:1001F0002B010E945E071F910F91FF90EF90DF90FF
:10020000CF90BF90AF900895EF92FF920F931F93FE
:10021000DF93CF93CDB7DEB761970FB6F894DEBF0B
:100220000FBECDBFF82EE92EE4ECF2E0AE01485F40
:100230005F4FBF01685070408081DB012D913C9180
:10024000813011F4C90104C088279927821B930BC0
:10025000DA018D939D93AD0131966E5F7F4FB2E0D1
:10026000E83CFB0749F782E092E0998B888B8F2D61
:100270009E2D60E071E00E9486118E010F5F1F4F7E
:10028000C8016F2D7E2D0E94B711C80161E071E099
:100290000E944911688579850E9438116DE071E0EE
:1002A0000E9449116A857B850E9438116DE071E0DA
:1002B0000E9449116C857D850E9438116DE071E0C6
:1002C0000E9449116E857F850E9438116FE071E0B0
:1002D0000E944911BC018F2D9E2D0E94A011C801C2
:1002E0000E94C8118F2D9E2D61960FB6F894DEBF27
:1002F0000FBECDBFCF91DF911F910F91FF90EF9077
:100300000895EF92FF920F931F93DF93CF93CDB792
:10031000DEB727970FB6F894DEBF0FBECDBF00E85B
:1003200013E0C80162E171E00E9438100E94B80B2E
:10033000AB01BC01C8012AE030E00E9429107E0117
:100340000894E11CF11CC7010E940401C801B70117
:100350000E944E10C7010E94C211C80160E071E006
:100360000E943B1027960FB6F894DEBF0FBECDBF9C
:10037000CF91DF911F910F91FF90EF9008950F9310
:100380001F9385E10E94270CAA2797FDA095BA2FFD
:10039000BC01CD0124E630E040E050E00E94FF15B2
:1003A0002FEF33E040E050E00E9440163093C90246
:1003B0002093C8023093CB022093CA0202E012E0DD
:1003C000C80168EC72E00E941D06C8010E943B054E
:1003D00084E491E00E940C021F910F9108950F9305
:1003E0001F9388E061E00E94A90C80E893E040E858
:1003F00055E260E070E00E94C60D84E491E044E6BE
:1004000050E060E070E021E831E000E010E00E94A0
:1004100085021F910F910895CF92DF92EF92FF9284
:100420000F931F93CF93DF937C018C01C0E0D0E04A
:1004300083E1C82ED12CF8018081882359F0CC9D0E
:10044000C001CD9D900DDC9D900D11248E0D9F1D42
:100450000E94AC0221960D5E1F4FCA30D10559F79C
:10046000DF91CF911F910F91FF90EF90DF90CF9090
:100470000895AF92BF92CF92DF92EF92FF920F93C7
:100480001F93CF93DF93DC016901E8015701FC0161
:10049000FF248081882341F0F39473968AE0F81654
:1004A000C1F7FF24FA9425C02F2D332727FD30955F
:1004B00083E190E0289F8001299F100D389F100D47
:1004C00011240A0F1B1F81E0F801808341835283AE
:1004D00063837483D683C583D286C1860E94B80B9A
:1004E000F8016387748785879687108A1786B28A92
:1004F000A18A8F2DDF91CF911F910F91FF90EF90E7
:10050000DF90CF90BF90AF900895EF92FF920F933E
:100510001F9378010FEF1FEF0E9439021F910F9177
:10052000FF90EF9008950F931F93CF93DF93EC010B
:1005300000E010E0CE01800F911F0E94A9020D5E25
:100540001F4F0E3B1105B1F7DF91CF911F910F9116
:100550000895FC0110820895EF92FF920F931F936C
:10056000CF93DF93EC010E94B80B7B018C018B854C
:100570009C85AD85BE85A8019701281B390B4A0BC8
:100580005B0B89819A81AB81BC81281739074A07A7
:100590005B07F0F08881813019F0823081F406C069
:1005A000E985FA8589899A89099509C060E0888575
:1005B000882309F461E068878F810E94E80CEB864C
:1005C000FC860D871E878F8598890196988B8F876B
:1005D0002D813E8137FD06C08F859889821793074C
:1005E0000CF01882DF91CF911F910F91FF90EF9047
:1005F0000895CF93DF93EC01DB0112962C931297B1
:1006000011965C934E93EA81FB81808113969C91B5
:100610001397892B808312968C911297833011F057
:10062000813031F48D8113969C911397892B8D83A2
:1006300012968C9112978150823028F48E811396F5
:100640009C91892B8E83809168009C81892B80935B
:100650006800DF91CF910895EF92FF920F931F935F
:10066000CF93DF938C015091CC02D80117962C9137
:10067000179715964C9115979091CC0216963C9130
:1006800016978091CC02809583239423892B25276C
:1006900082239091CC0217969C9317971896CD9130
:1006A000DC911997E82EFF241CC08B81282F30E0A5
:1006B000C70182239323892B89F08091CC0240E0EB
:1006C00090E082239323892B09F041E04093CE02EE
:1006D0008C818093CD02E881F98109950D80DE81BE
:1006E000C02D209711F78BB3F8019481892351F025
:1006F0008BB3892B8BBB0190F081E02D808180939F
:10070000CC02B1CFDF91CF911F910F91FF90EF906D
:1007100008951F920F920FB60F9211242F933F93BB
:100720004F935F936F937F938F939F93AF93BF93F9
:10073000EF93FF93E091CF02F091D00280818093FC
:10074000CC028FEC92E00E942C03FF91EF91BF91BD
:10075000AF919F918F917F916F915F914F913F9159
:100760002F910F900FBE0F901F9018951F920F9210
:100770000FB60F9211242F933F934F935F936F9374
:100780007F938F939F93AF93BF93EF93FF93E091EA
:10079000D902F091DA0280818093CC0289ED92E057
:1007A0000E942C03FF91EF91BF91AF919F918F9188
:1007B0007F916F915F914F913F912F910F900FBE5D
:1007C0000F901F9018951F920F920FB60F92112441
:1007D0002F933F934F935F936F937F938F939F9349
:1007E000AF93BF93EF93FF93E091E302F091E402A4
:1007F00080818093CC0283EE92E00E942C03FF91D3
:10080000EF91BF91AF919F918F917F916F915F9188
:100810004F913F912F910F900FBE0F901F90189501
:10082000E0E8F0E0859194919093D0028093CF021C
:100830008BE690E09093D2028093D10281E0809386
:10084000D3021092D4021092D5021092D8021092C4
:10085000D702E2E8F0E0859194919093DA028093D8
:10086000D9028CE690E09093DC028093DB0282E078
:100870008093DD021092DE021092DF021092E202FB
:100880001092E102E4E8F0E0859194919093E40203
:100890008093E3028DE690E09093E6028093E50278
:1008A00084E08093E7021092E8021092E90210922D
:1008B000EC021092EB020895CF92DF92EF92FF923A
:1008C0000F931F93CF93DF93EC01162F072F0E94F6
:1008D000C60BAB01BC01812F902F880F991FFC0123
:1008E000A3E0EE0FFF1FAA95E1F7E81BF90BEC0F51
:1008F000FD1FEC58FF4F80819181449709F055C04E
:10090000812F902F880F991F9C01E3E0220F331F46
:10091000EA95E1F7281B390B2C0F3D1F28593F4F53
:10092000812F902F880F991FFC01A3E0EE0FFF1F6E
:10093000AA95E1F7E81BF90BEC0FFD1FE459FF4FF7
:1009400080819181A281B3816A017B01C81AD90A91
:10095000EA0AFB0AF901C082D182E282F382812F86
:10096000902F880F991FFC01A3E0EE0FFF1FAA959F
:10097000E1F7E81BF90BEC0FFD1FE459FF4F408333
:10098000518362837383812F902F880F991FFC01FD
:1009900023E0EE0FFF1F2A95E1F7E81BF90BEC0FA0
:1009A000FD1FEC58FF4F11821082812F902F880F6E
:1009B000991FFC01A3E0EE0FFF1FAA95E1F7E81BCA
:1009C000F90BEC0FFD1FE059FF4F40835183628309
:1009D0007383812F902F880F991FFC0163E0EE0F26
:1009E000FF1F6A95E1F7E81BF90BEC0FFD1FEC58B0
:1009F000FF4F812F902F880F991F9C0143E0220FFA
:100A0000331F4A95E1F7281B390BC20FD31FCC586F
:100A1000DF4F88819981019691838083DF91CF9107
:100A20001F910F91FF90EF90DF90CF9008958091EC
:100A3000ED029091EE0263E070E00E945C04089584
:100A40008091ED029091EE0262E070E00E945C0401
:100A500008958091ED029091EE0261E070E00E94B5
:100A60005C0408958091ED029091EE0260E070E0E8
:100A70000E945C0408954F925F926F927F928F92D2
:100A80009F92AF92BF92CF92DF92FF920F931F93EC
:100A9000CF93DF938C0102551F4FEC0190EAC92ED2
:100AA000D12CCC0EDD1E88E6A82EB12CAC0EBD1EBE
:100AB000882499240F2EF0E04F2EF0E05F2EF0E016
:100AC0006F2EF0E07F2EF02DF8012081318137FF6D
:100AD00003C0309521953F4FB901882777FD809558
:100AE000982F0E94E814688779878A879B870E94DD
:100AF000C60BF5012085318542855385621B730B3A
:100B0000840B950B615472448040904028F4F601A8
:100B10008689882309F062C0F80115861486F601DB
:100B2000168AF80164857585882777FD8095982F4A
:100B30000E94E814688379838A839B8320E030E0F5
:100B40004AE754E40E949815181624F44882598202
:100B50006A827B82688579858A859B8520E030E082
:100B600040E050E00E944914882329F448825982C9
:100B70006A827B8207C0F801EE54F0408081918147
:100B80000E94BD09FF246C817D818E819F810E941E
:100B9000B5141616170614F4FF24F394F601F68A1A
:100BA0006C817D818E819F810E94B5149B01AC0177
:100BB000F60181916F01B9010E94490C0894811CD2
:100BC000911C0E5F1F4F68968EE090E0A80EB91E34
:100BD00094E08916910409F077CF1FC0F8947894B7
:100BE000F501208131814281538160E07DE281E322
:100BF00091E00E941E16CA01B90124E630E040E0EF
:100C000050E00E94FF1526E331E040E050E00E94F2
:100C10001E16F8013587248784CFDF91CF911F916D
:100C20000F91FF90DF90CF90BF90AF909F908F90EB
:100C30007F906F905F904F900895CF92DF92EF92E8
:100C4000FF920F931F93CF93DF938B012EEAC22E57
:100C5000D12CC80ED91EEC01CC55DF4FEE24FF2459
:100C600020E0F80180819181181619060CF421E02A
:100C70002E8FF8018081918197FF03C09095819517
:100C80009F4FF601819391936F0188816E8D0E9431
:100C9000E80C0894E11CF11C0E5F1F4F2196F4E054
:100CA000EF16F104E9F6DF91CF911F910F91FF90BC
:100CB000EF90DF90CF9008950F931F93CF93DF9322
:100CC000EC01C056DF4F00E010E0888161E00E9437
:100CD000A90C8C8161E00E94A90C0F5F1F4F219627
:100CE0000430110591F7DF91CF911F910F91089575
:100CF000CF92DF92EF92FF920F931F93CF93DF93E8
:100D00008C01F62E6A01E22EFC01C085D185209768
:100D100089F08C818F1541F4C801BE01A6012E2DEA
:100D20000E94F90280E03CC08D819E81009731F0E5
:100D3000EC01EFCF80E090E09C01E90187E090E0DA
:100D40000E945C0FDC0111961C921E9212961C925E
:100D50001297009711F48FEF23C01496FC9214970A
:100D60001296EC92129716961C921E921597EF2DE2
:100D7000F0E0E656FF4FE4911396EC931397F801D9
:100D800080859185892B19F4B187A08702C0BE8325
:100D9000AD83C801BD01A6012E2D0E94F90281E09C
:100DA000DF91CF911F910F91FF90EF90DF90CF9047
:100DB0000895582F9B01742FE82FF0E0EA57FF4F5A
:100DC0008491882311F121153105F9F0833051F018
:100DD000843059F0823019F4AFECB2E008C0A0E0E2
:100DE000B0E005C0A9EDB2E002C0A3EEB2E0ED9123
:100DF000FC911197808117968C931797CD01652FE1
:100E0000A901272F0E94780608958FEF0895AF92C9
:100E1000BF92CF92DF92EF92FF920F931F938C01BC
:100E200058EAE52EF12CE80EF91EF701808160E00A
:100E30000E94A90C49EAC42ED12CC00ED11EF60185
:100E4000808160E00E94A90C3AEAA32EB12CA00E8A
:100E5000B11EF501808160E00E94A90C05551F4F6D
:100E6000F801808160E00E94A90CF701808162E3B3
:100E700075E041E050E00E94D906F601808169E208
:100E800075E041E050E00E94D906F501808160E202
:100E900075E041E050E00E94D906F801808167E1E9
:100EA00075E041E050E00E94D9061F910F91FF903C
:100EB000EF90DF90CF90BF90AF9008952F923F9228
:100EC0004F925F926F927F928F929F92AF92BF925A
:100ED000CF92DF92EF92FF920F931F93DF93CF9306
:100EE000CDB7DEB760970FB6F894DEBF0FBECDBFAB
:100EF0003C01A982BA82CB82DC82ED82FE820F8322
:100F0000188729873A874B875C876D877E87DC0146
:100F1000A056BF4FFE0131968EE001900D92815098
:100F2000E1F71301C301805A9F4F988B8F874424A8
:100F3000552489E390E00E945C0F982E892E00D002
:100F400000D000D09201220F331F240D351DB901AE
:100F5000A3E0660F771FAA95E1F7660D771DA9013B
:100F6000F3E0440F551FFA95E1F74C5F5F4F460DD4
:100F7000571D2F5F3F4FE3E0220F331FEA95E1F744
:100F8000260D371DF101E484F58406851785A088B8
:100F9000B188C288D38884899589A689B789EDB735
:100FA000FEB781839283A383B48316821582892D31
:100FB000982D0E94DB0AEF85F889908281828DB797
:100FC0009EB706960FB6F8949EBF0FBE8DBF892DB3
:100FD000982D61E070E00E9469090894411C511C41
:100FE000E8E1F0E02E0E3F1E8F8598890296988BDF
:100FF0008F8794E04916510409F09BCFC3010E94EA
:101000005C06C3010E9407077092EE026092ED0237
:1010100060960FB6F894DEBF0FBECDBFCF91DF91C3
:101020001F910F91FF90EF90DF90CF90BF90AF9006
:101030009F908F907F906F905F904F903F902F90F8
:1010400008952F923F924F925F926F927F928F926C
:101050009F92AF92BF92CF92DF92EF92FF920F9347
:101060001F93DF93CF9300D000D0CDB7DEB71C0124
:1010700049835A836B837C834801590126013701D8
:10108000CB01BA0120E030E040E050E00E9449147A
:1010900087FD8CC0C501B40120E030E040E050E0A5
:1010A0000E94491487FD82C0C701B60120E030E0EC
:1010B00040E050E00E94491487FD78C089819A8100
:1010C000AB81BC81F10180839183A283B383D10181
:1010D00014968D929D92AD92BC921797C086D18640
:1010E000E286F38664A575A586A597A50E94E614F9
:1010F00020E030E04AE754E40E944D147B018C016B
:1011000089819A81AB81BC81F10184879587A6870B
:10111000B787C501B401A80197010E949C155B0126
:101120006C01D10150966D937D938D939C93539751
:10113000C301B201A80197010E944D147B018C01EB
:10114000F101648B758B868B978B808D918D0197C8
:1011500069F560E070E080E090E029813A814B81A0
:101160005C810E94E413D1011C966D937D938D9355
:101170009C931F9760E070E080E090E0A6019501ED
:101180000E94E413F101608B718B828B938B60E082
:1011900070E080E090E0A80197010E94E413D10183
:1011A00054966D937D938D939C9357970F900F90CA
:1011B0000F900F90CF91DF911F910F91FF90EF90C3
:1011C000DF90CF90BF90AF909F908F907F906F9067
:1011D0005F904F903F902F9008954F925F926F9243
:1011E0007F928F929F92AF92BF92CF92DF92EF92B7
:1011F000FF920F931F93CF93DF93EC013A014B01C2
:1012000078018901CB01BA01A80197010E949815C4
:1012100087FF4EC068AA79AA8AAA9BAAECAAFDAA4F
:101220000EAB1FAB88AD882309F442C04C8C5D8C9B
:10123000F201A080B180C280D380C601B501A801AF
:1012400097010E949815181634F4F201E082F18299
:10125000028313830DC0C601B501A40193010E944E
:10126000491488232CF4F201608271828282938275
:10127000ACA0BDA0CEA0DFA0ECA8FDA80EA91FA920
:10128000C601B501A80197010E949815181664F0CF
:10129000E8A8F9A80AA91BA9C601B501A8019701E8
:1012A0000E944914882324F4ECA2FDA20EA31FA3DC
:1012B000DF91CF911F910F91FF90EF90DF90CF9032
:1012C000BF90AF909F908F907F906F905F904F9066
:1012D00008959F92AF92BF92CF92DF92EF92FF92CA
:1012E0000F931F93CF93DF93EC0199246130710525
:1012F00011F49924939488AD91E08927981681F58B
:10130000EC8DFD8DE080F18002811381ECA2FDA2C5
:101310000EA31FA3EA8DFB8D80819181A281B381F1
:1013200088A799A7AAA7BBA7ACA8BDA8CEA8DFA8E5
:10133000C801B701A60195010E949815181664F01E
:10134000A8A8B9A8CAA8DBA8C801B701A601950139
:101350000E944914882324F4ACA2BDA2CEA2DFA22D
:1013600098AEDF91CF911F910F91FF90EF90DF909A
:10137000CF90BF90AF909F9008952F923F924F9241
:101380005F926F927F928F929F92AF92BF92CF9215
:10139000DF92EF92FF920F931F93DF93CF9300D0D2
:1013A00000D000D0CDB7DEB79E838D83DC01D89608
:1013B0008C91882309F4E5C00E94B80B69837A8375
:1013C0008B839C83ED81FE8180A191A1A2A1B3A119
:1013D00029813A814B815C81281B390B4A0B5B0BBD
:1013E00084A595A5A6A5B7A5281739074A075B07C1
:1013F00008F4C7C0028CF38DE02D2080318042803C
:101400005380AD81BE815E96ED91FC915F976081C6
:10141000718182819381A20191010E94E4133B01B9
:101420004C01ED81FE8120893189428953890E94D6
:101430009C15AD81BE8194962D913D914D915C910D
:1014400097970E94E5137B018C01ED81FE8164A3D7
:1014500075A386A397A3A4A8B5A8C6A8D7A8A601D4
:1014600095010E949815181674F0ED81FE81A0A8D0
:10147000B1A8C2A8D3A8C801B701A60195010E94CE
:101480004914882344F4AD81BE819496AD92BD92F7
:10149000CD92DC929797C401B301ED81FE81248542
:1014A0003585468557850E949C15AD81BE819496F1
:1014B0002D913D914D915C9197970E94E5137B0191
:1014C0008C01C201B101ED81FE8120A531A542A5AB
:1014D00053A50E94E413AD81BE8154962D913D9198
:1014E0004D915C9157970E949C159B01AC01C801DE
:1014F000B7010E94E4137B018C01ED81FE81D4A829
:10150000C5A8B6A8A7A82D2D3C2D4B2D5A2D0E945D
:1015100098151816BCF0AD81BE81D096DC90D0979E
:10152000D196CC90D197D296BC90D297D396AC90CE
:10153000C801B7012D2D3C2D4B2D5A2D0E94491469
:10154000882334F48D2D9C2DAB2DBA2D7C018D017B
:10155000AD81BE815C96ED91FC915D97E082F18258
:1015600002831383FD0120A631A642A653A68981DA
:101570009A81AB81BC8180A391A3A2A3B3A381E094
:1015800001C080E026960FB6F894DEBF0FBECDBF37
:10159000CF91DF911F910F91FF90EF90DF90CF904F
:1015A000BF90AF909F908F907F906F905F904F9083
:1015B0003F902F9008954F925F926F927F928F92FB
:1015C0009F92AF92BF92CF92DF92EF92FF920F93D2
:1015D0001F93DF93CF93CDB7DEB74C0127013801BE
:1015E000EF88F88CFC01558F448F738F628F378F93
:1015F000268F10AE40E050E060E070E000E010E0C8
:101600002FE733E40E94ED0884E690E0A0E0B0E02C
:10161000F40184A795A7A6A7B7A780AD882391F169
:10162000808D918DE816F90669F160E070E080E048
:1016300090E024853585468557850E94E413F401A2
:10164000648775878687978760E070E080E090E028
:1016500020893189428953890E94E413F401608B07
:10166000718B828B938B60E070E080E090E0248946
:101670003589468957890E94E413F401648B758B80
:10168000868B978BF401F18EE08EC401B301A20129
:1016900096018501CB88DC88ED88FE880E942108B0
:1016A0000E94B80BF40124A535A546A557A5621BD9
:1016B000730B840B950B60A371A382A393A3CF91AB
:1016C000DF911F910F91FF90EF90DF90CF90BF902F
:1016D000AF909F908F907F906F905F904F90089504
:1016E0001F920F920FB60F9211242F933F938F9357
:1016F0009F93AF93BF938091F3029091F402A091D6
:10170000F502B091F6023091F7020196A11DB11DCC
:10171000232F2D5F2D3720F02D570196A11DB11DD0
:101720002093F7028093F3029093F402A093F502C2
:10173000B093F6028091EF029091F002A091F10235
:10174000B091F2020196A11DB11D8093EF0290931A
:10175000F002A093F102B093F202BF91AF919F917A
:101760008F913F912F910F900FBE0F901F90189562
:101770008FB7F8942091F3023091F4024091F50272
:101780005091F6028FBFB901CA0108959FB7F8942E
:101790002091EF023091F0024091F1025091F2025B
:1017A00086B5A89B06C08F3F21F02F5F3F4F4F4F5C
:1017B0005F4F9FBF542F432F322F2227280F311DF9
:1017C000411D511D82E0220F331F441F551F8A9572
:1017D000D1F7B901CA010895789484B5826084BDB7
:1017E00084B5816084BD85B5826085BD85B5816025
:1017F00085BDEEE6F0E0808181608083E1E8F0E085
:101800001082808182608083808181608083E0E8B3
:10181000F0E0808181608083E1EBF0E08081846092
:101820008083E0EBF0E0808181608083EAE7F0E094
:1018300080818460808380818260808380818160F8
:1018400080838081806880831092C1000895982FE2
:101850008E3008F09E50977080912C018295880FF1
:10186000880F807C892B80937C0080917A00806433
:1018700080937A0080917A0086FDFCCF20917800D9
:1018800040917900942F80E030E0282B392BC9015A
:1018900008951F93CF93DF93182FEB0161E00E940F
:1018A000A90C209709F44AC0CF3FD10509F449C0DB
:1018B000E12FF0E0E255FF4F84918330C1F0843096
:1018C00028F4813051F08230B1F50CC0863019F126
:1018D000873049F1843079F514C084B5806884BDBF
:1018E000C7BD33C084B5806284BDC8BD2EC08091A1
:1018F0008000806880938000D0938900C093880026
:1019000024C080918000806280938000D0938B00FF
:10191000C0938A001AC08091B00080688093B000A4
:10192000C093B30012C08091B00080628093B00079
:10193000C093B4000AC0C038D1051CF4812F60E008
:1019400002C0812F61E00E94E80CDF91CF911F91CE
:101950000895CF93DF93482F50E0CA0186569F4FDA
:10196000FC0134914A575F4FFA018491882369F151
:1019700090E0880F991FFC01E859FF4FA591B491A1
:10198000FC01EE58FF4FC591D491662351F42FB757
:10199000F8948C91932F909589238C938881892337
:1019A0000BC0623061F42FB7F8948C91932F90950F
:1019B00089238C938881832B88832FBF06C09FB790
:1019C000F8948C91832B8C939FBFDF91CF910895D6
:1019D000482F50E0CA0182559F4FFC012491CA0153
:1019E00086569F4FFC0194914A575F4FFA013491FC
:1019F000332309F440C0222351F1233071F0243005
:101A000028F42130A1F0223011F514C02630B1F0B5
:101A10002730C1F02430D9F404C0809180008F7742
:101A200003C0809180008F7D8093800010C084B5BA
:101A30008F7702C084B58F7D84BD09C08091B000CE
:101A40008F7703C08091B0008F7D8093B000E32F2B
:101A5000F0E0EE0FFF1FEE58FF4FA591B4912FB7A6
:101A6000F894662321F48C919095892302C08C917F
:101A7000892B8C932FBF089508951F920F920FB654
:101A80000F9211242F933F934F938F939F93EF9334
:101A9000FF938091C00082FD1DC04091C60020913F
:101AA0003803309139032F5F3F4F2F73307080918F
:101AB0003A0390913B032817390771F0E0913803FE
:101AC000F0913903E850FD4F408330933903209360
:101AD000380302C08091C600FF91EF919F918F91D2
:101AE0004F913F912F910F900FBE0F901F9018951F
:101AF000E0918C03F0918D03E05CFF4F8191919117
:101B000020813181821B930B8F739070892B11F090
:101B10000E943C0D08951F920F920FB60F92112450
:101B20002F933F938F939F93EF93FF9320917C0389
:101B300030917D0380917E0390917F0328173907B0
:101B400031F48091C1008F7D8093C10014C0E09179
:101B50007E03F0917F03E45CFC4F208180917E0343
:101B600090917F0301968F73907090937F03809381
:101B70007E032093C600FF91EF919F918F913F913B
:101B80002F910F900FBE0F901F901895AF92BF929C
:101B9000DF92EF92FF920F931F93CF93DF93EC01AD
:101BA0007A018B01DD24403081EE580780E0680720
:101BB00080E0780711F0DD24D39491E0A92EB12CB8
:101BC000EC89FD89DD2069F0C50108A002C0880FFD
:101BD000991F0A94E2F7808360E079E08DE390E05A
:101BE00005C0108260E874E88EE190E0A8019701DA
:101BF0000E941E1621503040404050405695479557
:101C00003795279580E12030380720F0DD2011F04E
:101C1000DD24D6CFE889F9893083EA89FB892083DE
:101C200019A2EE89FF89408121E030E0C9010C8CC6
:101C300002C0880F991F0A94E2F7482B4083EE896F
:101C4000FF894081C9010D8C02C0880F991F0A9439
:101C5000E2F7482B4083EE89FF894081C9010E8C51
:101C600002C0880F991F0A94E2F7482B4083EE893F
:101C7000FF8980810F8C02C0220F331F0A94E2F784
:101C8000209528232083DF91CF911F910F91FF9002
:101C9000EF90DF90BF90AF900895DC011C96ED911E
:101CA000FC911D97E05CFF4F2191319180819181E2
:101CB000281B390B2F733070C9010895DC011C9665
:101CC000ED91FC911D97E05CFF4F20813181E05444
:101CD000F040DF01AE5BBF4F8D919C9111972817AB
:101CE000390719F42FEF3FEF07C08D919C91E80F52
:101CF000F91F8081282F30E0C9010895DC011C966E
:101D0000ED91FC911D97E05CFF4F20813181E05403
:101D1000F040DF01AE5BBF4F8D919C91119728176A
:101D2000390719F42FEF3FEF10C08D919C91119757
:101D3000E80FF91F20818D919C91119701968F7367
:101D4000907011969C938E9330E0C9010895DC0148
:101D500091968C919197882339F05496ED91FC914E
:101D60005597808186FFF9CF91961C920895CF9365
:101D7000DF93EC01EE85FF85E05CFF4F2081318130
:101D8000E054F0402F5F3F4F2F733070DF01AE5BA8
:101D9000BF4F8D919C91119728173907D1F3E05CC3
:101DA000FF4F80819181E054F040E80FF91F60837C
:101DB000EE85FF85E05CFF4F31832083EE89FF894C
:101DC000208181E090E00F8C02C0880F991F0A9457
:101DD000E2F7282B208381E089A3EC89FD898081AB
:101DE0008064808381E090E0DF91CF91089510922C
:101DF00083031092820388EE93E0A0E0B0E080932A
:101E0000840390938503A0938603B093870387E3AD
:101E100091E0909381038093800388EF92E0909308
:101E20008D0380938C038CE393E090938F038093D6
:101E30008E0385EC90E0909391038093900384EC63
:101E400090E0909393038093920380EC90E09093C2
:101E500095038093940381EC90E090939703809393
:101E6000960382EC90E0909399038093980386EC1C
:101E700090E090939B0380939A0384E080939C036B
:101E800083E080939D0387E080939E0385E08093A9
:101E90009F0381E08093A0030895CF93DF930E9476
:101EA000EC0B0E94EF01C8E7DDE00E94BF01209724
:101EB000E1F30E94780DF9CF0E94CE110895CF92E0
:101EC000DF92EF92FF920F931F93CF93DF937C01EA
:101ED0006B018A01C0E0D0E00FC0D6016D916D01A9
:101EE000D701ED91FC910190F081E02DC70109959A
:101EF000C80FD91F015010400115110571F7CE010F
:101F0000DF91CF911F910F91FF90EF90DF90CF90D5
:101F10000895EF92FF920F931F938C01DC01ED91D6
:101F2000FC910190F081E02D6DE009957C01D801D4
:101F3000ED91FC910190F081E02DC8016AE00995D6
:101F40009C012E0D3F1DC9011F910F91FF90EF9035
:101F50000895CF93DF93EC016115710519F420E02A
:101F600030E00FC0DB010D900020E9F71197A61BB0
:101F7000B70BE881F9810280F381E02DAD0109956D
:101F80009C01C901DF91CF9108954F925F927F929A
:101F90008F929F92AF92BF92CF92DF92EF92FF9279
:101FA0000F931F93DF93CF93CDB7DEB7A1970FB6F3
:101FB000F894DEBF0FBECDBF2C01742ECB012230B2
:101FC00008F42AE019A231E2C32ED12CCC0EDD1E7A
:101FD000822E9924AA24BB24672D752FA501940174
:101FE0000E941E1679018A01C801B701A50194015A
:101FF0000E94FF15472D461B0894C108D1084A309E
:1020000014F4405D01C0495CF6014083E114F10421
:102010000105110521F07E2C5F2DC801DDCFC20125
:10202000B6010E94A90FA1960FB6F894DEBF0FBEAD
:10203000CDBFCF91DF911F910F91FF90EF90DF9077
:10204000CF90BF90AF909F908F907F905F904F9078
:102050000895DC012115310541F4ED91FC910190C9
:10206000F081E02D642F099508950E94C50F089511
:102070000E94A90F0895EF92FF920F931F937C0186
:102080000E94A90F8C01C7010E94890F080F191F18
:10209000C8011F910F91FF90EF900895AF92BF92EA
:1020A000CF92DF92EF92FF920F931F93CF93DF9324
:1020B0005C016B01EE24FF24C0E0D0E010C0D5012C
:1020C000ED91FC9100811181C601BE010E94811039
:1020D000682FC501F8010995E80EF91E2196F60151
:1020E00084819581C817D90750F3C701DF91CF913B
:1020F0001F910F91FF90EF90DF90CF90BF90AF9026
:102100000895FC01848195816817790748F401904E
:10211000F081E02D309721F0E60FF71F80810895C0
:1021200080E008950F931F93CF93DF93EC018B0111
:102130006F5F7F4F888199810E940313009711F48C
:1021400080E005C0998388831B830A8381E0DF9147
:10215000CF911F910F910895CF93DF93EC01888168
:102160009981892B29F08A819B818617970760F4D2
:10217000CE010E949210882341F08C819D81892B91
:1021800019F4E881F981108281E0DF91CF910895FF
:10219000EF92FF920F931F93CF93DF93EC017B019C
:1021A0006C817D81E114F104C1F04115510599F074
:1021B0008A01060F171FB8010E94AC10882369F02E
:1021C000888199812C813D81820F931FB7010E94E4
:1021D00097001D830C8381E001C080E0DF91CF91E7
:1021E0001F910F91FF90EF900895EF92FF920F9340
:1021F0001F93DF93CF93CDB7DEB727970FB6F89431
:10220000DEBF0FBECDBF7C01CB018E010F5F1F4F24
:10221000B8014AE050E00E949E00F80101900020C1
:10222000E9F73197E01BF10BC701B801AF010E943C
:10223000C81027960FB6F894DEBF0FBECDBFCF9162
:10224000DF911F910F91FF90EF900895CF93DF934F
:10225000EC0188819981009711F00E946B1219821C
:1022600018821D821C821B821A82DF91CF910895F1
:102270000F931F93182F092F0E94F510882321F424
:10228000812F902F0E942611812F902F1F910F9147
:1022900008950F931F93182F092F6115710561F091
:1022A000DB010D900020E9F71197A61BB70BAD01DC
:1022B0000E94C810882321F4812F902F0E9426119C
:1022C000812F902F1F910F910895EF92FF920F93FE
:1022D0001F93CF93DF93EC017B018A01BA010E9427
:1022E000AC10882321F4CE010E94261107C01D8363
:1022F0000C8388819981B7010E949700CE01DF91FC
:10230000CF911F910F91FF90EF900895CF93DF939E
:10231000EC01198218821B821A821D821C821E8285
:102320006115710551F0DB010D900020E9F711975F
:10233000A61BB70BAD010E946511DF91CF910895E7
:10234000CF93DF93EC01FB018617970761F0608163
:1023500071816115710529F0448155810E946511D3
:1023600002C00E942611CE01DF91CF910895FC0199
:1023700011821082138212821582148216820E94A8
:10238000A0110895FC01808191810E946B12089533
:10239000FC01808191810E946B1208950F931F931D
:1023A000CF93DF93BC018230910510F462E070E0BE
:1023B000E091A403F091A503A0E0B0E040E050E07C
:1023C00024C08081918186179707D0F086179707E0
:1023D00071F482819381109729F013969C938E93C8
:1023E00012972CC09093A5038093A40327C0411596
:1023F000510519F08417950718F4EF018D01AC0110
:10240000DF01828193819C01F9013097D1F641155A
:102410005105F9F0CA01861B970B8430910580F4B1
:102420008A819B810115110521F0F8019383828334
:1024300004C09093A5038093A403FE01329645C087
:10244000FE01E80FF91F61937193029799838883C6
:102450003CC08091A2039091A303892B41F4809109
:102460002F01909130019093A3038093A203409198
:102470003101509132014115510541F44DB75EB71C
:1024800080912D0190912E01481B590B2091A203A0
:102490003091A30324173507B0F4CA01821B930BB4
:1024A0008617970780F0AB014E5F5F4F8417950743
:1024B00050F0420F531F5093A3034093A203F9011E
:1024C0006193719302C0E0E0F0E0CF01DF91CF9122
:1024D0001F910F910895CF93DF939C01009709F40A
:1024E0008FC0EC0122971B821A826091A403709125
:1024F000A5036115710581F488819981820F931F6D
:102500002091A2033091A3032817390739F5D093FE
:10251000A303C093A20374C0DB0140E050E0AC17FA
:10252000BD0708F1BB83AA83FE0121913191E20F1F
:10253000F31FAE17BF0779F48D919C911197280F67
:10254000391F2E5F3F4F3983288312968D919C91BE
:1025500013979B838A834115510571F4D093A5038A
:10256000C093A4034DC012968D919C911397AD0119
:10257000009711F0DC01D3CFDA011396DC93CE93F0
:102580001297FA0121913191E20FF31FCE17DF0765
:1025900069F488819981280F391F2E5F3F4FFA0116
:1025A000318320838A819B8193838283E0E0F0E002
:1025B000DB0112968D919C911397009719F0BC0145
:1025C000FD01F6CFAB014E5F5F4FDB018D919C911A
:1025D000840F951F2091A2033091A3032817390778
:1025E00079F4309729F41092A5031092A40302C045
:1025F00013821282425050405093A3034093A2038F
:10260000DF91CF9108956F927F928F929F92AF92B8
:10261000BF92CF92DF92EF92FF920F931F93CF93CF
:10262000DF938C01009729F4CB010E94CE118C011D
:10263000BBC08EEFE82E8FEFF82EE00EF11E4801A2
:10264000860E971E8E149F0408F4ACC0D7014D91DE
:102650005C91119746175707B8F04530510508F4BB
:10266000A3C0CA0104978617970708F49DC042507B
:102670005040461B570BF401419351936D937C934B
:10268000CF010E946B1290C05B01A41AB50A3801F9
:10269000640E751EA091A403B091A503CC24DD2483
:1026A000E0E0F0E047C0A615B705A9F5CD91DC91B3
:1026B0001197CE0102968A159B0568F1CE018A1901
:1026C0009B09029612962C91129713963C910597AE
:1026D00058F0F40122833383CA19DB09D183C08304
:1026E000D7016D937C9309C04E5F5F4F4C0F5D1F08
:1026F000F70151834083C901FC01C114D10431F0B9
:10270000D6011396FC93EE9312974EC0F093A50357
:10271000E093A40349C08D919C911197E817F907A4
:1027200008F4FC016D0112968C91129713969C91FE
:102730009C01D901109709F0B6CF8091A203909126
:10274000A30386159705E9F4E617F707D0F420915F
:102750003101309132012115310541F42DB73EB7D9
:1027600080912D0190912E01281B390B8216930622
:10277000C8F49092A3038092A203F701718360834F
:1027800013C0CB010E94CE11EC01009759F0D70184
:102790004D915C91B8010E948E00C8010E946B129D
:1027A0008E0102C000E010E0C801DF91CF911F91BF
:1027B0000F91FF90EF90DF90CF90BF90AF909F90E0
:1027C0008F907F906F9008955058BB27AA270ED006
:1027D00075C166D130F06BD120F031F49F3F11F418
:1027E0001EF45BC10EF4E095E7FB51C1E92F77D1F0
:1027F00080F3BA17620773078407950718F071F41E
:102800009EF58FC10EF4E0950B2EBA2FA02D0B0173
:10281000B90190010C01CA01A0011124FF27591B25
:1028200099F0593F50F4503E68F11A16F040A22F2B
:10283000232F342F4427585FF3CF4695379527959C
:10284000A795F0405395C9F77EF41F16BA0B620B9B
:10285000730B840BBAF09150A1F0FF0FBB1F661FE2
:10286000771F881FC2F70EC0BA0F621F731F841F25
:1028700048F4879577956795B795F7959E3F08F04B
:10288000B3CF9395880F08F09927EE0F979587950A
:102890000895D9D008F481E008950CD00FC107D174
:1028A00040F0FED030F021F45F3F19F0F0C051113C
:1028B00039C1F3C014D198F39923C9F35523B1F367
:1028C000951B550BBB27AA2762177307840738F09F
:1028D0009F5F5F4F220F331F441FAA1FA9F333D0FE
:1028E0000E2E3AF0E0E830D091505040E695001CB2
:1028F000CAF729D0FE2F27D0660F771F881FBB1F6E
:10290000261737074807AB07B0E809F0BB0B802D47
:10291000BF01FF2793585F4F2AF09E3F510568F093
:10292000B6C000C15F3FECF3983EDCF38695779527
:102930006795B795F7959F5FC9F7880F911D969595
:10294000879597F90895E1E0660F771F881FBB1FF1
:10295000621773078407BA0720F0621B730B840B9E
:10296000BA0BEE1F88F7E095089504D06894B11172
:10297000D9C00895BCD088F09F5790F0B92F9927FF
:10298000B751A0F0D1F0660F771F881F991F1AF07A
:10299000BA95C9F712C0B13081F0C3D0B1E0089543
:1029A000C0C0672F782F8827B85F39F0B93FCCF3C4
:1029B000869577956795B395D9F73EF49095809570
:1029C000709561957F4F8F4F9F4F0895E89409C090
:1029D00097FB3EF490958095709561957F4F8F4F52
:1029E0009F4F9923A9F0F92F96E9BB279395F69568
:1029F000879577956795B795F111F8CFFAF4BB0FE6
:102A000011F460FF1BC06F5F7F4F8F4F9F4F16C049
:102A1000882311F096E911C0772321F09EE8872FD3
:102A2000762F05C0662371F096E8862F70E060E08F
:102A30002AF09A95660F771F881FDAF7880F969508
:102A4000879597F90895990F0008550FAA0BE0E8AC
:102A5000FEEF16161706E807F907C0F01216130660
:102A6000E407F50798F0621B730B840B950B39F4A0
:102A70000A2661F0232B242B252B21F408950A2606
:102A800009F4A140A6958FEF811D811D089597F946
:102A90009F6780E870E060E008959FEF80EC089504
:102AA00000240A941616170618060906089500242D
:102AB0000A9412161306140605060895092E0394A7
:102AC000000C11F4882352F0BB0F40F4BF2B11F41B
:102AD00060FF04C06F5F7F4F8F4F9F4F089557FD7A
:102AE0009058440F551F59F05F3F71F04795880F7C
:102AF00097FB991F61F09F3F79F087950895121613
:102B000013061406551FF2CF4695F1DF08C01616BE
:102B100017061806991FF1CF86957105610508946F
:102B20000895E894BB2766277727CB0197F9089586
:102B30008ADF08F48FEF08950BD0C0CFB1DF28F003
:102B4000B6DF18F0952309F0A2CFA7CF1124EACF62
:102B5000C6DFA0F3959FD1F3950F50E0551F629FFC
:102B6000F001729FBB27F00DB11D639FAA27F00DE6
:102B7000B11DAA1F649F6627B00DA11D661F829F0D
:102B80002227B00DA11D621F739FB00DA11D621FF2
:102B9000839FA00D611D221F749F3327A00D611D0F
:102BA000231F849F600D211D822F762F6A2F1124F1
:102BB0009F5750408AF0E1F088234AF0EE0FFF1F44
:102BC000BB1F661F771F881F91505040A9F79E3F7B
:102BD000510570F05CCFA6CF5F3FECF3983EDCF37D
:102BE000869577956795B795F795E7959F5FC1F7B8
:102BF000FE2B880F911D9695879597F90895629FF2
:102C0000D001739FF001829FE00DF11D649FE00DE4
:102C1000F11D929FF00D839FF00D749FF00D659F45
:102C2000F00D9927729FB00DE11DF91F639FB00D44
:102C3000E11DF91FBD01CF0111240895A1E21A2E53
:102C4000AA1BBB1BFD010DC0AA1FBB1FEE1FFF1F50
:102C5000A217B307E407F50720F0A21BB30BE40BA0
:102C6000F50B661F771F881F991F1A9469F76095E7
:102C70007095809590959B01AC01BD01CF010895A1
:102C800097FB092E05260ED057FD04D0D7DF0AD0BA
:102C9000001C38F450954095309521953F4F4F4F8B
:102CA0005F4F0895F6F790958095709561957F4FE9
:102CB0008F4F9F4F0895EE0FFF1F0590F491E02D69
:102CC0000994AA1BBB1B51E107C0AA1FBB1FA61773
:102CD000B70710F0A61BB70B881F991F5A95A9F7C5
:0E2CE00080959095BC01CD010895F894FFCF2A
:102CEE0000207370656564203D205B20002000206D
:102CFE005D006865617274626561743A2000090650
:102D0E000503070407040E0F10110407018000A627
:102D1E0003000000000000B70E5F0F4D0E7E0E5E2A
:042D2E000EA70E00DE
:00000001FF
